:020000040800F2
:10000000B807002029020008471B0008E911000872
:10001000451B00083B040008F51B00080000000019
:100020000000000000000000000000004B1B000862
:100030003D04000800000000491B00084D1B00089B
:10004000430200084302000843020008430200087C
:10005000430200084302000843020008430200086C
:10006000430200084302000843020008430200085C
:10007000430200084302000843020008430200084C
:10008000430200084302000843020008430200083C
:10009000430200084302000843020008430200082C
:1000A000430200084302000843020008430200081C
:1000B000430200084302000843020008430200080C
:1000C00043020008430200084302000843020008FC
:1000D00043020008430200084302000843020008EC
:1000E00043020008430200084302000843020008DC
:1000F00043020008430200084302000843020008CC
:1001000043020008430200084302000843020008BB
:1001100043020008430200084302000843020008AB
:10012000430200084302000843020008430200089B
:10013000430200084302000843020008430200088B
:10014000430200084302000843020008430200087B
:10015000430200084302000843020008430200086B
:10016000430200084302000843020008430200085B
:100170004302000843020008430200080000000098
:10018000430200084302000800F002F800F03CF8C7
:100190000AA090E8000C82448344AAF10107DA45E2
:1001A00001D100F031F8AFF2090EBAE80F0013F0F8
:1001B000010F18BFFB1A43F001031847DC2D0000A4
:1001C000FC2D0000103A24BF78C878C1FAD8520735
:1001D00024BF30C830C144BF04680C6070470000C1
:1001E0000023002400250026103A28BF78C1FBD840
:1001F000520728BF30C148BF0B6070471FB502F0DF
:1002000069FE1FBD10B510BD00F0E2F81146FFF702
:10021000F5FF02F081F800F000F903B4FFF7F2FFF8
:1002200003BC00F003F90000094880470948004773
:10023000FEE7FEE7FEE7FEE7FEE7FEE7FEE7FEE796
:10024000FEE7FEE704480549054A064B70470000F3
:10025000E51B000889010008B8010020B80700204C
:10026000B8030020B803002053EA020C00F06980B4
:100270002DE9F04B4FF00006002B1FBFB3FA83F5BA
:1002800003FA05F424FA05F65E4012BF1643B2FAEB
:1002900082F502FA05F4C5F120051EBF22FA05FC1D
:1002A00044EA0C04203556EA044C4FEA144418BFC3
:1002B000641C4FF000084FF00009904271EB030CF2
:1002C00039D3002919BFB1FA81F701FA07F6B0FA5C
:1002D00080F700FA07F6C7F120071EBF20FA07FCD7
:1002E00046EA0C062037B6FBF4FCA7EB0507103FE7
:1002F00007F01F0BCBF120060CFA0BFB2CFA06F6CD
:1003000044BFB3460026202FA4BF5E464FF0000B2B
:100310005BEA060C08BF4FF0010B19EB0B09ABFBB6
:10032000027C48EB0608C01B06FB02CC0BFB03CC8F
:1003300071EB0C01C1E70B46024641464846BDE859
:10034000F08B13B54FF000004FF00001AFF30080C9
:10035000BDE81C4070474FF0000200B513469446BC
:100360009646203922BFA0E80C50A0E80C50B1F10D
:100370002001BFF4F7AF090728BFA0E80C5048BF21
:100380000CC05DF804EB890028BF40F8042B08BFBF
:10039000704748BF20F8022B11F0804F18BF00F8BB
:1003A000012B704770477047704710B500F008F890
:1003B000006810BD10B5044600F002F8046010BDDE
:1003C000004870475801002000487047580100203D
:1003D0007546FFF7F9FFAE4605006946534620F023
:1003E0000700854618B020B5FFF72CFFBDE8204078
:1003F0004FF000064FF000074FF000084FF0000BE1
:1004000021F00701AC46ACE8C009ACE8C009ACE893
:10041000C009ACE8C0098D46704710B50446AFF37B
:1004200000802046BDE81040FFF7F7BE01491820C4
:10043000ABBEFEE7260002007047FEE770470000F3
:1004400070B5044600F00CF90546601C02D0044863
:100450000078044400F004F9401BA042FAD370BDB8
:10046000980000202DE9F84FDFF8BCA100220125FB
:1004700003264FF00F090AF1040BAAF1040E00BF86
:100480000B6805FA02F42340A34270D10F7907F0FC
:100490000307012F01D0022F16D187684FEA4208C7
:1004A00006FA08FC27EA0C07D1F80CC00CFA08FC85
:1004B0004CEA070CC0F808C04768A7430C79C4F39E
:1004C000001494403C4344600C79E443A4070AD0F0
:1004D000C4684FEA420C06FA0CF7BC438F6807FA6F
:1004E0000CF72743C7600C7904F00304022C12D1E7
:1004F000D40800EB840CDCF820405707FF0E09FA03
:1005000007F824EA0804D1F8108008FA07F848EA46
:100510000408CCF8208004684FEA420C06FA0CF775
:10052000BC430F7907F0030707FA0CF7274307606E
:100530004C6814F4403F70D03C4C276847F4804727
:100540002760246822F0030704F480440094384CA8
:1005500007EB040CDCF8084897074FEA177809FA0C
:1005600008F7BC43334FB84202D1002724E054E0DF
:10057000314FB84201D101271EE0304FB84201D1BE
:10058000022719E02E4FB84201D1032714E02D4F66
:10059000B84201D104270FE02B4FB84201D1052703
:1005A0000AE02A4FB84201D1062705E0284FB84299
:1005B00001D1072700E0082707FA08F72743CCF8FE
:1005C0000878DAF800405746D1F804C09C435FEA47
:1005D000CC2C00D51C433C60DBF800405F46D1F8D2
:1005E00004C09C435FEA8C2C00D51C433C60DEF8C1
:1005F00000407746D1F804C09C435FEA8C3C00D5AC
:100600001C433C60084F083F3C68D1F804C09C4341
:100610005FEACC3C00D51C433C60521C102AFFF41E
:100620002FAFBDE8F88F0000083C0140443802407D
:100630000030014000000240000402400008024077
:10064000000C02400010024000140240001802405A
:10065000001C02400AB1816170470904FBE70000F9
:1006600001488068704700009800002070B50400C1
:1006700025D094F83D00002520B984F83C50204650
:1006800000F04CFA242084F83D002068016821F035
:10069000010101602068016841F4004101602068A7
:1006A000016821F40041016000F092FB4D4A61684D
:1006B000914201D84C4900E04C49884201D20120C6
:1006C00070BD4B492368B0FBF1F15E6826F03F0630
:1006D0000E435E606368934206D94FF496735943A4
:1006E0004FF47A73B1FBF3F12368491C1E6A26F0BC
:1006F0003F06314319626168914210D84900401E9B
:10070000B0FBF1F2521CC2F30B02042A01D2042006
:1007100022E0B0FBF1F0401CC0F30B001CE0A2682B
:10072000F2B301EBC10303EB0116431EB3FBF6F377
:100730005B1C43F480431B0549D092B301EBC1021B
:1007400002EB0111401EB0FBF1F0401CC0F30B00A6
:1007500040F4804040F400402168CA694CF6FF73C1
:100760009A431043C861D4E9071001432068026826
:1007700022F0C00211430160D4E903010143206863
:10078000826848F2FF339A4311438160D4E905013E
:1007900008432168CA6822F0FF021043C86001E0E4
:1007A0000EE016E02068016841F001010160256457
:1007B000202084F83D00256384F83E50002070BD61
:1007C00001EB4106431EB3FBF6F35B1CB3E70120CC
:1007D000C2E701EB4101401EB0FBF1F0401CC0F349
:1007E0000B00B7E7A086010080841E0000093D00D1
:1007F00040420F002DE9FF4F83B09A46DDE9119783
:1008000093460446DDF84080FFF72AFF054694F83A
:100810003D00202870D119230122714920460095FE
:1008200000F0F2FD0028F5D194F83C00012863D0D7
:10083000012084F83C0020680168C90703D10168E1
:1008400041F0010101602068016821F4006101604C
:10085000222084F83D00402084F83E0000262664D3
:10086000C4F82480A4F82A90608D20855D48E06259
:10087000CDE9007553465A462046049900F0CCFC59
:1008800000287CD1208DD0B1012821D002282068F9
:1008900024D0416980690090208D032869D80128FF
:1008A0002BD0514902283B464FF00002009559D009
:1008B0008846204600F0A8FD002860D13CE0206872
:1008C000416981690091016841F40071016077E03C
:1008D0002068016821F480610160F0E7016821F47B
:1008E000806101602068016841F400610160206856
:1008F00041698069009063E06FE02A4639462046EE
:1009000000F001FE98BB20680069616A08704EE043
:100910002068016841F40071016020680069616A23
:100920000870606A401C6062218D491E2185618DBE
:10093000491E6185216838E02068016821F48061E2
:10094000016020680069616A0870606A401C60622A
:10095000208D401E2085608D401E60853B46002214
:1009600041460095204600F04FFD00B9D0E706E073
:10097000FFE72A463946204600F0C5FD18B10120A0
:1009800007B0BDE8F08F20680069616A0870606A8E
:10099000401C6062218D491E2185618D491E618543
:1009A00021684A69D24352070AD409690170606A12
:1009B000401C6062208D401E2085608D401E608539
:1009C000208D00287FF468AF202084F83D0084F853
:1009D0003E6084F83C600020D2E70220D0E70000AF
:1009E000020010000000FFFF040001002DE9FF4F8E
:1009F00083B09A46DDE9119793460446DDF84080BE
:100A0000FFF72EFE054694F83D0020287FD11923DC
:100A1000012240492046009500F0F6FC002876D1DE
:100A200094F83C00012872D0012084F83C00206832
:100A30000168C90703D1016841F001010160206824
:100A4000016821F400610160212084F83D0040200C
:100A500084F83E0000262664C4F82480A4F82A9076
:100A6000608D20852C48E062CDE9007553465A46DA
:100A70002046049900F04EFC70B930E02A46394611
:100A8000204600F073FD58B1206C042804D1206882
:100A9000016841F400710160012007B0BDE8F08FEA
:100AA000606A216800780861606A401C6062218D7C
:100AB000491E89B22185628D521E62852268536962
:100AC000DB435B070BD469B100781061606A401C9E
:100AD0006062208D401E2085608D401E6085208DC7
:100AE0000028CBD12A463946204600F067FC002872
:100AF000CAD154F83D0B016841F400710160202017
:100B000004F81E09E67766770020C6E7FFE70220B3
:100B1000C3E70000020010000000FFFF10B586B020
:100B2000044614216846FFF716FC134920688842E2
:100B300020D112480021026842F0020202600068DF
:100B400000F002000590C02000901220CDE90101C4
:100B5000032003900420049069460948FFF782FCB3
:100B600006481030016841F400110160006800F48B
:100B70000010059006B010BD00540040303802400F
:100B80000004024002488168027811448160704785
:100B9000980000200B4810B5016841F40071016015
:100BA000016841F480610160016841F48071016075
:100BB000032000F061F80F2000F006F800F024F8A0
:100BC000002010BD003C024070B50D4D04464FF4AE
:100BD0007A712878B1FBF0F00A490968B1FBF0F0AE
:100BE00000F0EEFA48B9102C07D200222146501E20
:100BF00000F022F800206C6070BD012070BD000084
:100C000098000020A40000200A4808B5016841F4BB
:100C100080410160006800F4804000900548001F9A
:100C2000016841F080510160006800F08050009040
:100C300008BD000044380240F0B40E4B1B680C465F
:100C4000C3F30223C3F10705042D00D90425191DA0
:100C5000072901D2002300E0DB1E012606FA05F178
:100C6000491E214099409E40761E16403143F0BCFB
:100C700000F0D9BF0CED00E0064900F0070208685B
:100C80004FF6FF03184040EA0220034A1043086071
:100C9000704700000CED00E00000FA052DE9F04778
:100CA0000E46050065D0DFF81481D8F80000F7B2D1
:100CB00000F00700B04207D288F80070D8F80000B2
:100CC00000F00700B04254D128683D4C810712D58E
:100CD000400703D5206840F4E050206028780007E2
:100CE00003D5206840F4604020602068A96820F0A7
:100CF000F000084320602878C0072DD0304968688C
:100D00000839012812D0022813D0032811D009680D
:100D1000890700292DDA216821F0030101432160B0
:100D2000FFF79EFC814641F2883A0EE0096889038C
:100D3000EFE709688901ECE7FFF792FCA0EB0901F6
:100D4000514502D90320BDE8F0872068696800F0AA
:100D50000C00B0EB810FEFD1D8F80010404601F045
:100D60000701B14207D90770006800F00700B042E0
:100D700001D00120E7E72878400705D52068E96819
:100D800020F4E050084320602878000706D520684A
:100D9000296920F4604040EAC100206000F028F892
:100DA0002168084AC1F30311515CC8400649086034
:100DB00006480068FFF708FF0020C4E7003C024037
:100DC00008380240DE2E0008A40000209C0000200D
:100DD0000448054900680968044AC1F38221515C4E
:100DE000C8407047A400002008380240EE2E0008DA
:100DF000154810B5006810F00C02144813D01449BF
:100E0000042A0FD0082A0ED10F4C241F2268236811
:100E100002F03F025B0207D52068C0F38810A0FBF8
:100E2000010106E0084610BD2168C1F38811A1FB4D
:100E300000010023FFF718FA2168C1F30141491CA2
:100E40004900B0FBF1F010BD083802400024F40066
:100E500040787D012DE9F84F04006ED02078DFF84E
:100E60004C93C007A9F104054AD009F104000168B8
:100E7000C1F38101012908D00068C0F38100022874
:100E80000AD1D9F80000400206D52868800337D57A
:100E900060680028E1D033E06068B0F5803F10D092
:100EA000B0F5A02F286810D020F480302860286882
:100EB00020F4802028606068A8B1FFF7D1FB0646C7
:100EC0000DE0286840F48030F4E740F4802028608A
:100ED000F7E700BFFFF7C4FB801B642873D82868BE
:100EE0008003F7D50CE0FFF7BBFB064605E000BF2B
:100EF000FFF7B6FB801B6428F0D828688003F7D47E
:100F00002078DFF8AC8280074FF0000A3ED5A74872
:100F1000001D016811F00C0F08D00068C0F38100BB
:100F200002280BD1D9F80000400207D428688007B6
:100F300016D5E068012800D112E033E1E068B8B1CD
:100F40000120C8F80000FFF78BFB064605E000BF54
:100F5000FFF786FB801B0228C0D828688007F7D5DA
:100F60002868216920F0F80040EAC10028600DE0FF
:100F7000C8F800A0FFF774FB064604E0FFF770FB1B
:100F8000801B02281FD828688007F7D42078000724
:100F900022D5864F87486169703771B101210160A0
:100FA000FFF75EFB064604E0FFF75AFB801B0228B2
:100FB00009D838688007F7D50EE0C0F800A0FFF721
:100FC0004FFB064605E082E0FFF74AFB801B022844
:100FD0007DD838688007F7D42078400768D5DFF8D7
:100FE000CCB100270BF13C0BDBF80000C0000BD4A8
:100FF000DBF8001041F08051CBF80010DBF8000066
:10100000012700F0805000906B4E3068C00510D46E
:10101000306840F480703060FFF722FB009005E0FC
:10102000FFF71EFB0099401A022850D83068C0050F
:10103000F6D55E4EA0686C3601280FD005283068C2
:1010400010D020F001003060306820F004003060E3
:10105000A068B8B1FFF704FB00900FE0306840F0E3
:101060000100F4E740F004003060F7E7FFF7F8FA1A
:101070000099411A41F28830814266D83068800771
:10108000F4D50EE0FFF7ECFA009007E0FFF7E8FA7E
:101090000099411A41F28830814256D83068800761
:1010A000F4D42FB1DBF8001021F08051CBF8001000
:1010B000A069C8B33D49091D0968C1F3810102292E
:1010C0004AD00228504607D0C8F8600000E03CE053
:1010D000FFF7C6FA04463BE04746C8F86000FFF752
:1010E000BFFA064605E000BFFFF7BAFA801B0228E8
:1010F0002BD828688001F7D4D4E907010843A16AF6
:101100002E4A490802EB0141626A41EA8211084312
:1011100094F82C1040EA0161C9F8001001203866EB
:10112000FFF79EFA044606E03EE000BFFFF798FA9C
:10113000001B022809D828688001F7D534E000BFD9
:10114000FFF78EFA001B022802D90320BDE8F88FB2
:1011500028688001F4D427E00128F7D0D9F80000EE
:10116000E26900F4800191421CD1226A00F03F0143
:10117000914217D147F6C071626A0140B1EB821FFC
:1011800010D1A26A4FF0FF3300F4403103EB52025A
:10119000B1EB024F06D194F82C1000F07060B0EB68
:1011A000016F01D00120D1E70020CFE704380240D1
:1011B00000004742800E4742007000400000FFFFE1
:1011C00010B5401EB0F1807F01D3012010BD4FF05B
:1011D000E02460610F21601700F025FD0020A06170
:1011E00007202061002010BDFEE701684A69D24354
:1011F00052050FD46FF480624A61002140F8301F1D
:10120000202242738173026942F004020261017379
:1012100001207047002070472DE9F84F0446006810
:1012200089460B9D01689846174641F4806101602C
:101230002068016841F48071016000954FF0011B46
:101240000022594620460A9B00F0DEF84FF4007A4F
:1012500040B120680068C00501D5C4F840A0032053
:10126000BDE8F88F216809F0FE0008612B46284987
:1012700020460A9A00F0FCF8F0BB206841698069BA
:1012800000902A4620460A9900F070F940B1206C7F
:1012900004283AD12068016841F40071016034E00B
:1012A000FEB2B8F1010F09D02168380A08612A4658
:1012B00020460A9900F05AF90028E8D12068066112
:1012C0002A4620460A9900F051F90028DFD120680B
:1012D000016841F480710160009500225946204662
:1012E0000A9B00F091F80028B3D1216809F0FF00B3
:1012F00040F00100086100E007E02B460449204669
:101300000A9A00F0B5F80028AAD00120A8E700004A
:10131000020001002DE9F843044600680D46DDE9AE
:10132000089701689846164641F4807101604B4663
:1013300000224FF001112046009700F065F848B1F7
:1013400020680068C00502D54FF4007020640320B7
:10135000BDE8F883216805F0FE0008613B464A4677
:101360001549204600F084F888B9206841698069F1
:1013700000903A464946204600F0F8F848B1206C03
:10138000042804D12068016841F400710160012043
:10139000DEE7F5B2B8F1010F09D02168300A086123
:1013A0003A464946204600F0E1F80028E7D1206897
:1013B00005610020CCE700000200010070B5164670
:1013C0000D4604460DE02046FFF70FFF08B101204F
:1013D00070BD681C05D0FFF743F9801BA84207D8F1
:1013E00035B120684069C0434007ECD4002070BD8F
:1013F000002044F8300F20216173A073216941F06F
:10140000200121612073E2E72DE9F0471E46904656
:101410000D460446C1F30747DDF8209008E0701C34
:1014200006D0FFF71DF9A0EB0900B0420FD876B146
:101430002068012F18D0806925EA00000004000C04
:1014400014D000214145EAD00020BDE8F0870020FB
:1014500044F8300F20216173A073216941F020010D
:10146000216120730120F0E74069E5E70121E9E708
:101470002DE9F0479A4691460E46044600254FF066
:101480002008C1F3074725E020684069C0434005B4
:1014900014D42068016841F40071016021686FF480
:1014A00080604861256384F83D8084F83E50206C5C
:1014B00040F00400206484F83C501FE0B9F1FF3F85
:1014C00008D0FFF7CDF8A0EB0A0149450CD8B9F1D7
:1014D000000F09D02068012F13D0806926EA000090
:1014E0000004000C0BD0CFE744F8305F84F80D8087
:1014F000A573206940F02000206125730120BDE81C
:10150000F0874069EAE72DE9F041002590460E4654
:101510000446202717E04069C043C0060CD454F8A5
:10152000301B6FF01000486144F810596777A577B9
:10153000206A2062257717E0FFF792F8A0EB0800F9
:10154000B04208D83EB120684169C9434906E2D497
:101550000020BDE8F08144F8305F6773A57320690F
:1015600040F02000206125730120F2E770B5164697
:101570000D4604460DE02046FFF737FE08B1012076
:1015800070BD681C05D0FFF76BF8801BA84207D818
:1015900035B120684069C0430006ECD4002070BD1E
:1015A000002044F8300F20216173A073216941F0BD
:1015B000200121612073E2E770B504462DED108B08
:1015C00082B0B0EE429AF0EE629AB0EE40FAF0EEDF
:1015D00060FA90ED08EB51EC110B53EC1E2B01F06F
:1015E0008FFB41EC100B51EC190B53EC102B01F05D
:1015F0007BF994ED061B53EC112B00F0C7FE94ED24
:1016000010DB41EC1A0B53EC1D2B51EC190B01F0C4
:101610006BF90E4646EC100B94ED0CCB054653ECE3
:101620001C2B51EC100B01F06BFB94ED0EBB53EC3B
:101630001B2B01F065FB94ED001B53EC112B00F00C
:10164000A5FE53EC192B01F04FF994ED0A1B53EC56
:10165000112B00F09BFE46EC105B41EC180B53EC99
:101660001C2B51EC100B01F073FA46EC105B41ECB3
:101670001C0B53EC1B2B51EC100B01F069FA94ED91
:10168000020B41EC1B0B53EC192B51EC100B01F02E
:101690002BF953EC1D2B00F079FE41EC100B51ECB3
:1016A000180B8DED000B94ED040B53EC102B00F098
:1016B0006DFE41EC190B51EC180B53EC192B00F09B
:1016C00019FF41EC1D0B53EC192B51EC1B0B00F0D7
:1016D00011FF41EC190B53EC1A2B51EC1F0B01F0CD
:1016E0000FFB41EC1F0B51EC1D0B53EC1F2B01F0BA
:1016F000FBF853EC1A2B00F049FE41EC1A0B53ECAB
:101700001F2B84ED06AB51EC190B01F0EDF853ECF7
:101710001E2B00F03BFEC4E9080153EC182B51ECE2
:101720001D0B01F0E1F853EC182B01F011FAC4E99C
:101730000A0153EC1C2B51EC1D0B01F0D5F853ECB6
:101740001C2B01F005FAC4E90C0153EC182B51ECE9
:10175000190B01F0C9F853EC1B2B01F0F9F9C4E99E
:101760000E0153EC1C2B51EC190B01F0BDF89DED53
:10177000000B53EC102B01F0EBF9C4E9100102B09F
:10178000B0EE4A0AF0EE6A0ABDEC108B70BD2DE98E
:10179000F04186B08046012504A8CDE90005642407
:1017A0002B467522D02102944046FFF723F89DF87E
:1017B0001000682803D0012006B0BDE8F0810027A2
:1017C00003AE8DF80C700096CDE9015401236B2215
:1017D000D0214046FFF70AF907208DF80C0000964B
:1017E000CDE9015401231922D0214046FFF7FEF82C
:1017F0008DF80C700096CDE9015401231C22D021F4
:101800004046FFF7F3F88DF80C700096CDE90154CF
:1018100001231B22D0214046FFF7E8F80020CBE748
:101820002DE9F0470C462DED0C8B88B09FED9A9B6F
:101830009FED9BDB9FED9CBB9FED9DAB64230E2238
:1018400003A98DE80E0001233B22D021FEF7D2FF31
:10185000BDF80C0040BA00B22080BDF80E1049BAA5
:101860000EB26680BDF8101049BA0DB2A580BDF861
:10187000121049BA0FFA81FABDF8141049BA0FB222
:101880002784BDF8161049BA09B261848946BDF8AB
:10189000181049BA09B2A184884600F0BFFF9FED35
:1018A000868B53EC182B01F01FF8C4E90201304677
:1018B00000F0B4FF53EC182B01F016F8C4E9040152
:1018C000284600F0ABFF9FED7E1B53EC112B00F080
:1018D00011FE00EE10AAB8EEC00A9FED7B1AC0EE12
:1018E000010A9FED7A0AC4E90601384630EE800A03
:1018F00084ED100A00F092FF9FED758B53EC182BCE
:1019000000F0F8FDC4E90A01484600F087FF53ECF7
:10191000182B00F0EFFDC4E90C01404600F07EFFFB
:1019200053EC182B00F0E6FDC4E90E01FEF798FE1B
:10193000694D2968401A00F088FF9FED681B53EC41
:10194000112B00F0D7FD41EC1C0BFEF789FE28603F
:10195000208810FB00F1A08810FB001000F05EFF53
:1019600041EC100B00F0E6FBB0EE408AF0EE608A2E
:1019700053EC192B51EC180B00F014FF13D0B4F9F1
:10198000020000F04BFF53EC182B00F0B3FD41ECCC
:10199000100B00F059F953EC1D2B51EC100B00F01B
:1019A000A3FF41EC190BB4F9040000F037FF41EC40
:1019B000180BB4F90000404200F030FF41EC100B6E
:1019C000B0EE481AF0EE681A00F0AAFA53EC1D2B9C
:1019D00051EC100B00F088FF41EC180B53EC1B2B63
:1019E00000F046FF08D294ED140B53EC1A2B51EC87
:1019F000100B01F077F80FD353EC1A2B51EC180BA6
:101A000001F070F811D294ED140B53EC1B2B51EC38
:101A1000100B00F02DFF08D22F48503080ED068BC0
:101A200084ED148B94ED140B0FE02B4894ED0C1BFC
:101A3000B0EE4C2AF0EE6C2AB0EE480AF0EE680ADE
:101A40005030FFF7B9FD84ED140B00F069FB53EC47
:101A50001A2B51EC100B01F045F807D294ED0A0B4C
:101A600051EC100B00F086FCC4E90A011A4894ED11
:101A70000A1BB0EE4C2AF0EE6C2AB0EE490AF0EEEA
:101A8000690A0830FFF798FD84ED120B08B0BDEC31
:101A90000C8BBDE8F0870000000000000000000093
:101AA000F8C1631ADCA54C4000000000008056C05D
:101AB0000000000000805640000000000000103FC1
:101AC000000000000029CC400000AA43B81E1242CA
:101AD00000000000006060400000002000000000E6
:101AE00000408F4070B586B014216846FEF733FC85
:101AF00012480024016841F008010160016801F00A
:101B000008010591016841F00201016000680C4E76
:101B100000F002004FF4C055059022462946304699
:101B2000FEF798FD01200095CDE901046946304695
:101B30000394FEF797FC06B070BD000030380240F9
:101B4000000C0240FEE7FEE770477047FFF71AB847
:101B500030B593B030216846FEF7FDFB14210CA888
:101B6000FEF7F9FB1D480025016841F08051016036
:101B7000006800F0805011901948016841F48041DC
:101B800001600068022400F480401190012003905D
:101B900010200490009406940820CDE90750A82056
:101BA000CDE9090404200B906846FFF753F908B10A
:101BB00072B6FEE70CA90F2081E831004FF4A05067
:101BC0000F904FF48050109005210CA8FFF766F895
:101BD000002801D072B6FEE713B030BD4038024095
:101BE000007000400248016841F4700101607047D4
:101BF00088ED00E0FEE703B401984100009850EA48
:101C0000C12018BF04204A0D18BF40F0010040F267
:101C1000FF72B2EB515F08BF40F00200012808BF1D
:101C2000052002B070470907090E002804DB00F107
:101C3000E02080F80014704700F00F0000F1E02071
:101C400080F8141D7047000070B59B482DED020B05
:101C50002DED068B079D25F00044A04218DC974827
:101C6000844202DC0AD1069840B19DED060BBDEC22
:101C7000068B02B0BDE8704000F015BB002DCCBF54
:101C80009FED8F0B9FED900BBDEC068B02B070BDEE
:101C90008F48A04215DD8F48A042D8BF4FF0FF34D7
:101CA00058DD9DED060B51EC100BFFF7A4FF042847
:101CB00008BF00F00DFB9DED060BBDEC068B02B0DE
:101CC00070BD9DED060B51EC100B00F019FBCDE93A
:101CD000060181489FED828BA0423CDD8248A042F4
:101CE0001FDD00249FED82AB9DED060B53EC1A2BFC
:101CF00051EC100B00F04AFB9DED060B41EC190B6B
:101D000053EC1A2B51EC100B00F0EEFD53EC182B9A
:101D100000F0F6FF53EC192B00F0ECFBCDE90601C7
:101D200049E09DED060B012453EC182B51EC100BF0
:101D300000F02CFB9DED060B41EC190B53EC182B1E
:101D400051EC100B00F0DCFF53EC192B00F0D2FB30
:101D5000CDE906012FE06848A0421FDD02249FED77
:101D6000689B9DED060B53EC192B51EC100B00F00A
:101D7000BBFD53EC182B00F009FB9DED060B41EC6D
:101D8000180B53EC192B51EC100B00F0B9FF53EC6E
:101D9000182B00F0AFFBCDE906010CE09DED060B22
:101DA000032453EC102B9FED580B51EC100B00F05B
:101DB000A1FBCDE906019DED060B53EC102B51EC78
:101DC000100B00F091FD41EC180B53EC182B00F0B8
:101DD0008BFD41EC190B4E480621B0EE490AF0EE9E
:101DE000690A784400F0E3F953EC182B51EC100B1E
:101DF00000F07AFD41EC180B4648B0EE490AF0EECF
:101E0000690A0521784400F0D2F953EC192B51EC02
:101E1000100B00F069FD41EC100B51EC180B53EC6A
:101E2000102B002C0EDA00F0B1FA9DED061B53ECDE
:101E3000112B00F059FD9DED061B53EC112B00F00A
:101E400087FE35E000F0A2FA9DED061B53EC112B46
:101E500000F04AFD41EC100B2F48784400EBC40021
:101E600090ED001B51EC100B53EC112B00F048FFD0
:101E70009DED061B53EC112B00F042FF41EC100BC3
:101E80002648784400EBC40090ED001B51EC100B89
:101E900053EC112B00F05CFE41EC100B002DA2BFA7
:101EA000BDEC068B02B070BD51EC100B00F062FA75
:101EB00041EC100B01E70000000010440000F07F2F
:101EC000182D4454FB21F93F182D4454FB21F9BF30
:101ED0000000DC3F0000203E0000F33F0000000057
:101EE000000000000000F03F0000E63F000000009E
:101EF00000000000000000400080034000000000DF
:101F0000000000000000F83F000000000000F0BFEB
:101F10007A11000030110000BA10000072100000A9
:101F200070B56F4E2DED040B2DED048B82B0DDF8F6
:101F300024C0DDE907235C422CF000411C4341EA48
:101F4000D474069D22F00040B44205D86C422C4364
:101F500040EAD474B4420BD99DED081B9DED060BED
:101F600002B0BDEC048B04B0BDE8704000F0A5B930
:101F7000ACF14054A4F17F641C430BD0022404EA6A
:101F8000AC7444EAD27405439FED578B9FED582BF8
:101F900007D015E09DED060B51EC100B00F0A8F9F1
:101FA00042E0002C11BF012C9DED060B02B0BDECF0
:101FB000048B04BF04B070BD022C38D0032C3BD07E
:101FC0000B439FED4D1B9FED4E0B0AD0B14218D134
:101FD000B04209D121F0804120F080400991079062
:101FE0000FE0002A15DA10E0474B7B44002C08BFB5
:101FF00093ED000B0DD0012C10D0022C17D0032C28
:102000001AD0B0421DD1002A03DAB0EE410AF0EE38
:10201000610A02B0BDEC048B04B070BD93ED000BFF
:1020200051EC100B00F0A6F941EC100BF1E7B0EE0B
:10203000480AF0EE680AECE7B0EE420AF0EE620AF7
:10204000E7E7401A00159FED329B3C28C8BF8DED95
:10205000000B17DCBCF1000FBCBF10F13C0F8DED85
:10206000009B0FDB9DED080B53EC102B9DED060B39
:1020700051EC100B00F03EFA00F042F900F038F994
:10208000CDE90001B4B1012C10D0022C9FED220B40
:1020900053EC102B9DED000B51EC100B19D000F000
:1020A0002FFE53EC182B00F02BFEBDE7019880F0BB
:1020B000004001909DED000B53EC192B51EC100BDF
:1020C00000F070FB04BF0220FEF774F99DED000BD9
:1020D0009FE700F015FE53EC182B00F039FDA3E745
:1020E0000000F07F00000000182D4454FB2109403F
:1020F000182D4454FB2109C0182D4454FB21F9BF6D
:10210000182D4454FB21F93FA20F000000000000ED
:102110000000000000000000075C143326A6A13C6C
:102120002DED020B019820F0004001909DED000B79
:1021300002B0704700B52DED048BB0EE409AF0EE82
:10214000609A83B051EC190B00F00EFD41EC180BB6
:1021500018EE100A18EE901A8DED008B002818BFAB
:102160000120084320F00040C0F17F6000F1E04012
:10217000C00F14D019EE101A19EE900A8DED009BC5
:10218000002918BF0121084320F00040C0F17F6002
:1021900000F1E040C00F04BF0120FEF70BF9B0EEE4
:1021A000480A03B0F0EE680ABDEC048B00BD70B5C0
:1021B00004462DED028B4D1E00EBC500B0EE408AAB
:1021C000F0EE608A90ED000B35F0060017D053EC6E
:1021D000182B51EC100B00F087FB41EC100B6D1E1F
:1021E00004EBC50090ED001B51EC100B53EC112BD0
:1021F00000F0CCF841EC100B35F00600E7D1022DD1
:1022000036D0042D1CD0062D1CBFBDEC028B70BD3A
:1022100053EC182B51EC100B00F066FB94ED0A1BED
:1022200053EC112B00F0B2F853EC182B00F05CFBD0
:1022300094ED081B53EC112B00F0A8F841EC100BA7
:1022400053EC182B51EC100B00F04EFB94ED061BD9
:1022500053EC112B00F09AF853EC182B00F044FBD0
:1022600094ED040B53EC102B00F090F841EC100BA4
:1022700053EC182B51EC100B00F036FB94ED021BC5
:1022800053EC112B00F082F853EC182B00F02CFBD0
:1022900094ED001B53EC112B00F078F8BDEC028B91
:1022A00041EC100B70BD10B553EC102B51EC100B22
:1022B00000F06CF841EC100B10BD10B553EC112B75
:1022C00051EC100B00F062F841EC100B10BD000057
:1022D0009FED050B10B553EC102B51EC100B00F0DB
:1022E00003FB41EC100B10BD0000000000000010CB
:1022F00010B541EC100BFFF7A7FC51EC100B10BD13
:1023000082B0CDE9000121F0004001909DED000B6D
:1023100002B051EC100B7047FEF73CFCFFF718FCC5
:10232000FFF7E0FB114810494FF48042016010496B
:10233000416000218160C0E9031241618161C16196
:102340000162FEF793F908B172B6FEE70748FFF79E
:102350001EFA0128FAD0054904485831FFF760FAFF
:102360006420FEF76DF8F6E700540040A800002056
:10237000801A060081F00041704780F000407047ED
:1023800021F00041704720F00040704710B591EAFD
:10239000030F48BF83F0004300F1BA84841A71EB45
:1023A000030C05D2121943EB0C03001B61EB0C016B
:1023B000DFF824E14FEA1154A4EB135C1EEA430F4B
:1023C00018BF9EEA445F73D023EA0E03DCF1200EAF
:1023D00021EA045143F4801332D322FA0CFE10EBAD
:1023E0000E0023FA0CFE41EB0E01CCF1200E03FA95
:1023F0000EFE10EB0E0051F10001B1F5801FCCF183
:10240000200E32D201EB045112FA0EF2BDE8104058
:1024100058BF7047401C38BF5FEA420218BF704780
:10242000002814BF20F0010041F100014FEA4103F0
:1024300013F5001F38BF7047A1F1C04100F04CBB3D
:10244000012A43EB0302ACF1200CDCF11F0E32BF7A
:102450004FF0000E23FA0CF310EB030041EB045194
:10246000B4EB115FD0D0A1EB045101F58011490804
:102470005FEA300001EB04510ED350F1000038BF89
:1024800012FA0EFE08D1BDE81040C9E7401C38BF63
:102490005FEA4202CAD1C3E7BDE810404FEA4103F8
:1024A00013F5001F38BF7047A1F1C04100F014BB05
:1024B0009EEA445F08D011EA5E0FBDE8104004BFF9
:1024C00001F0004100207047BDE8104070B500F0F9
:1024D000B5FA00BF64FBBE3E0000E0FF491058BFE4
:1024E000C1F140415B1058BFC3F140438B42EFF351
:1024F000008070472DE9C04130B4DFF8A0C23CEA4B
:10250000111418BF3CEA131400F0EC8081EA0305B3
:102510001CEA111444EAD57418BF1CEA131500F024
:10252000C780A4EB05044FF0004545EAC12145EA08
:10253000C32341EA505143EA525304F17F74994254
:1025400004F500344FEAC0204FEAC22208BF90428F
:1025500000F09C804FEA13650FF24016765D4FEA5B
:10256000134506FB05F7C7F1807706FB07F74FEA2F
:10257000D737A7FB03687642C8F58038A7FB06CE9D
:1025800038BFA8F1010807FB08E64FF0000EA6FBD4
:10259000028CE6FB03CEDCF1000CCEF1004E38BF1E
:1025A000AEF1010EA6FB0C584FF000074FF00005EE
:1025B000E6FB0E87A1FB08C6A0FB07CE16EB0E06B6
:1025C00045F10005E1FB076515F1E04E7EBFA4F57E
:1025D00080345FEA46066D4116F1800745F100053B
:1025E0004FEA17274FEA066647EA0567A6F1DE4677
:1025F000B6F1805F4FEA15251FD9384624F0010C4B
:1026000005EBC471BCF1FE6F01EB0C1102D8F0BCFC
:10261000BDE8008124425CBF01F5801E9EEAC47FB4
:1026200002D4F0BCBDE80081244238D4F0BCA1F152
:10263000C041BDE8004100F04FBA4FEAD22242EA61
:1026400043524FEAD323A7FB02864FEAD02040EA49
:10265000415007FB03661EEA0E0F4FEAD12105FB2E
:10266000026658BFA6EB0056B6EB00564FEA520E74
:102670004EEAC37E18EB0E0E56EB530EBDD518EB8B
:1026800002085E417F1C55F10005B6E74FF4801546
:102690004FF000074FF000064FF00008ADE7F0BC28
:1026A0004FF0000001F1C04101F00041BDE80081A0
:1026B00011EA0C1F0CEA131500D00CE013EA0C1FF2
:1026C00000F025804FF00000F0BC81EA030101F02A
:1026D0000041BDE80081F0BCBDE8004181EA030192
:1026E00000F0FAB9F0BCBDE8004170B500F0A6F901
:1026F000097EFC3E00F007B881EA03014FF00000BC
:1027000001F00041704781EA030100F0E5B9F0BC37
:10271000BDE800414FF0000021497047FFFDFBF983
:10272000F7F5F4F2F0EEEDEBE9E8E6E4E3E1E0DE04
:10273000DDDBDAD8D7D5D4D3D1D0CFCDCCCBCAC876
:10274000C7C6C5C4C2C1C0BFBEBDBCBBBAB9B8B79D
:10275000B6B5B4B3B2B1B0AFAEADACABAAA9A8A890
:10276000A7A6A5A4A3A3A2A1A09F9F9E9D9C9C9B5E
:102770009A99999897979695959493939291919009
:102780008F8F8E8E8D8C8C8B8B8A8989888887879A
:102790008685858484838382828181800000FF070F
:1027A0000000F87F51EA030C17D41CF5801F58BFB6
:1027B000BCF5801F00F10680994218BF704708BF22
:1027C0009042704707D711F5801F58BF13F5801F3F
:1027D00019D499427047894270471CF5801F08D56B
:1027E000BCF5801FF7D58B4218BF704708BF8242E7
:1027F00070474FF4001C1CEB410F38BF1CEB430F1C
:1028000001D28B42704770B500F018F9922449004C
:102810004FF000514FF08053FFF760BE10F00042C0
:1028200048BF4042B0FA80F310FA03F10AD0C3F176
:102830001D0303F580634FEA415002EB035202EBA4
:10284000D12170474FF000007047B0FA80F310FAC2
:1028500003F10AD0C3F11D0303F580634FEA415031
:102860004FEA035202EBD12170474FF0000070474E
:1028700051EA030C17D41CF5801F58BFBCF5801F0C
:1028800000F10680994218BF704708BF9042704718
:1028900007D711F5801F58BF13F5801F19D499422F
:1028A0007047894270471CF5801F08D5BCF5801F12
:1028B000F7D58B4218BF704708BF824270474FF46C
:1028C000001C1CEB410F38BF1CEB430F01D28B42A5
:1028D000704770B500F0B2F8922449004FF00051F3
:1028E0004FF08053FFF7FABDDFF848C170B51CEA1E
:1028F000111E1EBF1CEA13159EEA0C0F95EA0C0F61
:1029000000F06F8081EA030423EA4C134EEAD47E80
:1029100021EA4C1141F4801143F48013AE44A1FB31
:10292000024CA0FB0365AEF17F7E361955EB0C051A
:10293000A1FB034C4CF10003A0FB021C16EB0C06A0
:10294000654153F10003094218BF46F0010613F434
:10295000007F0BD14FEA03314FEA0530340341EADF
:10296000155140EA16506FF003020AE04FEAC32106
:102970004FEAC520F40241EA555140EA56506FF043
:10298000020202EB2E4201EB025585EACE710AD01B
:102990005FEA440C18BF24F0004450F1000041F1FC
:1029A000000120EAD47040F2FE7C624500D270BD86
:1029B000A84214BF4FF080444FF04044002E08BF9F
:1029C0000024BEF1806FA8BFA1F1C041BDE87040F6
:1029D00080F282804FF0000001F1C04101F000411F
:1029E00070479EEA0C0F0CEA131518BF95EA0C0FFE
:1029F00006D04FF0000081EA030E0EF0004170BDDA
:102A000000F01CF88900013E00F007B800F009B89A
:102A10004FEA430C5FEA5C5C08D081EA030100F0F6
:102A20005BB84FEA410C5FEA5C5CF6D14FF0000006
:102A3000014970470000FF070000F87F0EF1020E09
:102A40002EF0030E5EF8046B364205D4012A43EBE8
:102A5000030515F5001F12D8012841EB010C1CF5E8
:102A6000001F0CD80ED14FEAD17C15F5001F0CEBDE
:102A70004C0C0CF1020C08BF4CEBD37C04E04FF083
:102A8000080C01E04FEAD37C0CEB4C0526FA05F666
:102A900006F00706B6F1040C06D20EEB860CBDE874
:102AA00070404CF0010C6047DFE80CF0090B0202AB
:102AB0004FF000414FF00000A1F5002170BD194614
:102AC0001046012851EB010418BFD4F5001484BF4F
:102AD000002001F0004170BD0808A0F500114FEA88
:102AE0003101704753EA010C17D41CF5801F58BF01
:102AF000BCF5801F00F106808B4218BF704708BFED
:102B00008242704707D713F5801F58BF11F5801F09
:102B100019D48B4270479B4270471CF5801F08D523
:102B2000BCF5801FF7D5994218BF704708BF904287
:102B300070474FF4001C1CEB430F38BF1CEB410FD8
:102B400001D2994270470FB40CBC03BCFFF7C1BE61
:102B500091EA030F10B581F000413FF51FAC83F0FF
:102B6000004300F0D5B800002DE9F04101F5801CCC
:102B7000BCF5001FC0F2A9804FEA115C21EA0C519C
:102B80000CF1FD0C41F480115FEA5C0C0CF5C07C8B
:102B900001D34000494130A4890241EA90518702A3
:102BA0008E0E0A0CA45D04FB04F602FB06F6C6F1C9
:102BB0004046A4FB0662F60D46EA422606FB06F4F2
:102BC000A4FB01235242C3F1404338BF5B1EA6FB66
:102BD00002420024E6FB0324D20B42EA4446A6FB51
:102BE0000623A1FB02E2A3FB07E4E3FB614264428C
:102BF000C2F1404E38BFAEF1010EA6FB04234FF0E8
:102C00000002E6FB0E32A2FB03463400E2FB6264E4
:102C1000A1FB06E6A4FB07E8E4FB61687642C8F185
:102C2000405838BFA8F10108A2FB06E4A3FB08E561
:102C3000E2FB6854A1FB05E6A7FB04E8E1FB648620
:102C400018F1200556F10006A809A8F11B08B109E2
:102C500008F03F08B8F10A0F40EA86601CD901EB82
:102C60000C51BDE8F08100BFFCF5EEE8E2DDD8D301
:102C7000CFCBC7C3C0BDB9B6B4B1AEACA9A7A5A3ED
:102C8000A19F9D9B9A9896959392908F8D8C8B89FE
:102C90008887868584838281A0FB006800FB01F21F
:102CA00008EB4208B8EB872807D5341858EB010425
:102CB000D5D5401C51F10001D1E7341A78EB01045D
:102CC000CDD4401E71F10001C9E75FEA4C0C5FEA08
:102CD0009C5C0DD105D34FF0000001F00041BDE830
:102CE000F081BDE8F04170B5FFF7A8FE6DDBFFBED7
:102CF000BDE8F0414FF00000004970470000F87F48
:102D000010B591EA030F48BF83F000433FF546AB8F
:102D1000841A71EB030C07D212198CF0004C43EBB0
:102D20000C03001B61EB0C01DFF8A4E14FEA115426
:102D3000A4EB135C1EEA430F18BF9EEA445F00F049
:102D4000B08023EA6E03524221EA0451C3EB6E03C2
:102D500038BF5B1EDCF1200E25D322FA0CFE10EBEF
:102D60000E0043FA0CFE41EB0E01CCF1200E03FAEB
:102D70000EFE10EB0E0051F10001CCF1200E29D413
:102D800012FA0EF201EB0451BDE8104058BF704733
:102D9000401C1CBFB2F1004F704700280CBF491CFB
:102DA00020F00100704712EB020E43EB030218BF44
:102DB0004FF0010E4EEA4202ACF1200CDCF11E0E87
:102DC00054D943FA0CFE10EB0E0051F1FF31CCF157
:102DD0001E0ED5D50EF1010E12FA0EFE404141EB4A
:102DE000010101EB445C5FEA5C5C10D910EBDE7022
:102DF00001EB045138BFBEF1004FBDE8104018BFD1
:102E0000704700280CBF491C20F00100704730D2E9
:102E10004FEAD42C11F5001124F400641BD0B1FA50
:102E200081F20B3AA41AA41ED2F12003914030FA89
:102E300003F31943904001EBCC71002C01EB0451DA
:102E4000BDE81040A8BF704701F1C0414FF000003D
:102E500001F000417047B0FA80F310FA03F100D19D
:102E600010BDE41A173C4805C90AE4E701EB045118
:102E700010BD491001EB0451BDE810404FEA30008D
:102E800002E04FF0000170474A0008BF0042F8D04E
:102E9000B2F5001F28BF704701F000414FF000005D
:102EA00070479EEA445F07D011EA5E0FBDE810400C
:102EB00004BF002100207047BDE8104070B5FFF747
:102EC000BDFD00BF40DFF63E83F000411046704775
:102ED0000000E0FF4FF04070E1EE100A7047000084
:102EE00000000000000001020304060708090000BA
:102EF00000000102030400004FBB610567ACDD3F29
:102F0000182D4454FB21E93F9BF681D20B73EF3F10
:102F1000182D4454FB21F93FE2652F227F2B7A3C88
:102F2000075C143326A6813CBDCBF07A8807703C41
:102F3000075C143326A6913CC4EB98999999C9BFB4
:102F4000711623FEC671BCBF6D9A74AFF2B0B3BFE9
:102F50009AFDDE522DDEADBF2F6C6A2C44B4A2BFA9
:102F60000D5555555555D53FFF8300922449C23F15
:102F70006E204CC5CD45B73F513DD0A0660DB13F49
:102F8000EB0D76244B7BA93F11DA22E33AAD903F5B
:102F90000000000000000000B82F00080000002022
:102FA000A8000000C401000860300008A80000204C
:102FB00010070000E0010008000000000000000011
:102FC000000000E04D62503F000000C07493683F75
:102FD000000000E051B89E3F00000000000000002B
:102FE00000000000000000000000000000000000E1
:102FF00000000000000000000000000000000000D1
:103000000000000000000000000000E04D62503FA2
:10301000000000C07493683F000000E051B89E3F7C
:1030200000000000000000000000000000000000A0
:103030000000000000000000000000000000000090
:103040000000000000000000000000000000000080
:103050000100000010000000000000000024F40047
:040000050800018965
:00000001FF
